:10000000A1C00000BBC00000B9C00000B7C0000024
:10001000B5C00000B3C00000B1C00000AFC0000018
:10002000ADC00000ABC00000C2C40000A7C000000B
:10003000A5C00000A3C00000A1C000009FC0000038
:100040009DC000009BC0000099C0000097C0000048
:1000500095C0000093C0000091C000008FC0000058
:100060008DC000008BC0000089C0000087C0000068
:1000700085C0000083C0000081C000007FC0000078
:100080007DC000007BC0000079C0000077C0000088
:1000900075C0000073C0000071C000006FC0000098
:1000A0006DC000006BC0000069C000000600FF09C1
:1000B00001A1010902150025FF75089508810209B3
:1000C00003150025FF750895089102C01201100163
:1000D00000000008EB03777701000102000109022C
:1000E0002200010100C032090400000103000000E9
:1000F00009211101000122200007058103080005E4
:10010000040309042A034E006100740061006C00BE
:10011000690065002000530069006C0076006100F2
:100120006E006F00760069006300680000002C0319
:1001300045006700670020005300680065006C0000
:100140006C00000011241FBECFEFDAE0DEBFCDBF90
:1001500011E0A0E0B1E0EEE4F3E102C005900D9201
:10016000A031B107D9F712E0A0E1B1E001C01D92C2
:10017000AF32B107E1F742D10C94A50941CF8BB161
:100180008F70806A8BB908958BB18F7080618BB945
:10019000089580910E0190910F01009729F0019729
:1001A00090930F0180930E0108950F931F93D80130
:1001B000F9012BB1207F422F50E0CA0164E09695EF
:1001C00087956A95E1F781708083CA0135E096953D
:1001D00087953A95E1F781708183128227FF02C0EB
:1001E00081E0828386E0569547958A95E1F7842FD2
:1001F0008170838388E090E08D939C9380E01F91D1
:100200000F910895DF93CF930F92CDB7DEB7898317
:10021000479A89818EBD0DB407FEFDCF47988EB5F4
:100220000F90CF91DF910895CF93DF93EC01AC0154
:10023000485F5F4F8091100190911101A0911201D0
:10024000B0911301FC01EE5DFE4F299120830196D0
:10025000A11DB11D8093100190931101A093120173
:10026000B0931301C417D50729F78F3F9105A10556
:10027000B1050CF473C0109210011092110110928C
:1002800012011092130180911401882321F52898FE
:1002900086E0B8DF289A289888EDB4DF60911401D1
:1002A00070911501809116019091170120E031E0C5
:1002B00040E050E0F0D7822FA5DF80E0A3DF80E0B0
:1002C000A1DF289A80E197E228EC30E0F90131972C
:1002D000F1F70197D9F7289886E094DF289A2898B3
:1002E00082E090DF609114017091150180911601F8
:1002F0009091170120E031E040E050E0CCD7822F10
:1003000081DF609114017091150180911601909127
:10031000170120E031E040E050E0BDD7862F72DFCA
:1003200080E070DFC2E2D1E089916CDF82E0C2320E
:10033000D807D1F7289A8091140190911501A091C6
:100340001601B09117010196A11DB11D80931401F2
:1003500090931501A0931601B093170120911801F5
:10036000309119018BB18F70822B8BB9232B39F40B
:1003700080E190E0909319018093180104C01092DD
:10038000190110921801DF91CF910895C9014CCF46
:1003900080E091E03DC680E091E019D69091E200C6
:1003A00094609093E20080FD02C090E901C090E665
:1003B0008BB18F70982B9BB9089584B7877F84BFCA
:1003C00088E10FB6F89480936000109260000FBE31
:1003D00080E090E020E80FB6F894209361008093CD
:1003E00061000FBEC7D284B1807F84B984B18760B9
:1003F00084B93F9A80E58CBD479A0895DEDF8BB1C2
:100400008F7080618BB9789480E091E012D5FCD434
:10041000FBCFDA019330B1F0943028F4913041F001
:10042000923079F50AC0913211F1923251F524C01F
:10043000ECECF0E022E130E028C0EEEDF0E022E26A
:1004400030E023C0813049F0813018F08230C9F4A7
:100450000AC0E0E0F1E0849103C0E4E0F1E08491BF
:10046000282F30E012C0EEE2F1E08491F9CFE0EF06
:10047000F0E029E030E009C0ECEAF0E020E230E012
:1004800004C0E0E0F0E020E030E0ED93FC93C9012F
:1004900008959C0140912D0250912E024617570756
:1004A00018F4F90190E045C06115710511F0AB0138
:1004B000F8CF8091E8008E778093E80040E050E02C
:1004C000F0CF80912602882309F445C0853009F4D5
:1004D00044C08091E80083FF02C081E008958091CC
:1004E000E80082FD32C08091E80080FF22C0809148
:1004F000F3009091F200782F60E0292F30E0262B56
:10050000372B07C081918093F100415050402F5FFD
:100510003F4F4115510519F02830310598F390E00F
:100520002830310509F491E08091E8008E778093BE
:10053000E8004115510529F6992319F606C0809166
:100540002602882341F0853041F08091E80082FF47
:10055000F6CF80E0089582E0089583E008959C013D
:100560006115710529F48091E8008B778093E8008C
:10057000F90127C080912602882399F1853099F1ED
:100580008091E80083FF02C081E008958091E80037
:1005900082FFF0CF06C08091F100819361507040DE
:1005A00059F02091F3008091F200322F20E090E08A
:1005B000822B932B892B79F78091E8008B7780939E
:1005C000E80061157105B1F606C080912602882306
:1005D00041F0853041F08091E80080FFF6CF80E067
:1005E000089582E0089583E008959C0140912D02D2
:1005F00050912E024617570718F4F90190E046C0B3
:100600006115710511F0AB01F8CF8091E8008E778C
:100610008093E80040E050E0F0CF809126028823EC
:1006200009F447C0853009F446C08091E80083FF93
:1006300002C081E008958091E80082FD34C080917D
:10064000E80080FF23C08091F3009091F200782FA2
:1006500060E0292F30E0262B372B08C0849180934F
:10066000F1003196415050402F5F3F4F41155105E9
:1006700019F02830310590F390E02830310509F465
:1006800091E08091E8008E778093E8004115510554
:1006900021F6992309F0C1CF06C080912602882354
:1006A00041F0853041F08091E80082FFF6CF80E094
:1006B000089582E0089583E00895BF92CF92DF927B
:1006C000EF92FF920F931F93CF93DF93182F092F71
:1006D0007B016A01D9D0B82E8823B1F5812F902FE4
:1006E0009C01E901C114D10439F0F60180819181A6
:1006F000E81AF90AC80FD91F00E010E022C0809163
:10070000E80085FD16C08091E8008E778093E800B0
:100710007BD3C114D10449F0F60180819181800F0F
:10072000911F9183808385E010C0AED0882349F06B
:100730000CC089918093F1000894E108F1080F5FE3
:100740001F4FE114F104D9F68B2DDF91CF911F914A
:100750000F91FF90EF90DF90CF90BF900895382FCA
:10076000282F2EC0822F8F708093E900231721F449
:10077000762F942F50E006C07091EC009091ED0020
:100780005091F00091FF1BC08091EB008E7F809311
:10079000EB008091ED008D7F8093ED008091EB0068
:1007A00081608093EB007093EC009093ED00509388
:1007B000F0008091EE0087FD02C080E008952F5F79
:1007C000273080F23F703093E90081E008950F9365
:1007D0001F93CF93DF93062FEC0110E02AC098817E
:1007E000992329F16B81E981FA812C81892F8F70FE
:1007F000873018F5223010F452E001C056E040E096
:1008000028E030E003C04F5F220F331F2E173F0751
:10081000D0F36295660F660F607C991F9927991F28
:10082000692B4295407F452B9ADF882331F01F5F6B
:1008300025961017A0F281E001C080E0DF91CF91F2
:100840001F910F9108958091270288239CF404C082
:10085000809126028823B9F08091E80082FFF8CFCA
:100860008091E8008B778093E800089580912602BC
:10087000882349F08091E80080FFF8CF8091E8005C
:100880008E778093E80008954091E4005091E50050
:1008900024E68091EC0080FF24C08091E80080FD78
:1008A0001EC080912602882311F482E008958530CD
:1008B00011F483E008958091EB0085FF02C081E090
:1008C00008958091E4009091E5008417950709F35D
:1008D000222311F484E008952150AC01DACF80E0A6
:1008E00008958091E80082FFDCCFF9CFEF92FF926C
:1008F0000F931F934FD056D008ED10E0F801808180
:100900008F77808380818068808380818F7D8083E2
:1009100019BC109226021092220210922402109208
:10092000230280EEE82EF12CF70180818B7F8083FB
:10093000F80180818160808380E060E042E00FDF29
:10094000E1EEF0E080818E7F8083E2EEF0E0808156
:1009500081608083808188608083F70180818E7FC1
:100960008083F8018081806180831F910F91FF90C7
:10097000EF900895E8EDF0E080818F7E8083E7EDD1
:10098000F0E080818160808384E082BF81E0809399
:100990002502ACCFE8EDF0E080818E7F808310925D
:1009A000E20008951092DA001092E10008951F927B
:1009B0000F920FB60F9211242F933F934F935F9393
:1009C0006F937F938F939F93AF93BF93EF93FF9317
:1009D0008091E10082FF0AC08091E20082FF06C0A0
:1009E0008091E1008B7F8093E100D3DB8091DA007E
:1009F00080FF1CC08091D80080FF18C08091DA0071
:100A00008E7F8093DA008091D90080FF0BC019BCE3
:100A100082E089BD09B400FEFDCF81E0809326020B
:100A2000AEDB04C019BC10922602AEDB8091E1005F
:100A300080FF18C08091E20080FF14C08091E20026
:100A40008E7F8093E2008091E20080618093E200DB
:100A50008091D80080628093D80019BC85E0809393
:100A60002602D1D18091E10084FF2EC08091E20066
:100A700084FF2AC019BC82E089BD09B400FEFDCF05
:100A80008091D8008F7D8093D8008091E1008F7E87
:100A90008093E1008091E2008F7E8093E20080915C
:100AA000E20081608093E20080912202882311F0AD
:100AB00084E007C08091E30087FD02C081E001C0AF
:100AC00083E0809326029FD18091E10083FF22C0C2
:100AD0008091E20083FF1EC08091E100877F8093B8
:100AE000E10082E080932602109222028091E100D0
:100AF0008E7F8093E1008091E2008E7F8093E20000
:100B00008091E20080618093E20080E060E042E05A
:100B100026DE79D1FF91EF91BF91AF919F918F9197
:100B20007F916F915F914F913F912F910F900FBEE9
:100B30000F901F9018951F93DF93CF93CDB7DEB71B
:100B4000AC970FB6F894DEBF0FBECDBFE7E2F2E080
:100B50008091F100819322E0EF32F207C9F718DCAF
:100B60008091E80083FF37C18091270230912802ED
:100B7000353009F487C0363040F43130C9F13130B6
:100B800070F0333009F027C133C0383009F4F5C0B4
:100B9000393009F404C1363009F01DC196C08038DF
:100BA00021F0823809F017C108C09091230280918A
:100BB0002402882399F0926011C080912B028F70DB
:100BC0008093E9008091EB0090E025E09695879571
:100BD0002A95E1F7982F91701092E9008091E80032
:100BE000877F8093E8009093F1001092F100D0C0CD
:100BF000882319F0823009F0EEC090E08F71907078
:100C0000009721F0029709F0E6C00CC080912902FC
:100C1000813009F0E0C010922402333069F58093EE
:100C200024022AC080912902882331F520912B02C9
:100C30002F7009F4D0C02093E9008091EB0080FF71
:100C40001BC0333021F48091EB00806213C080918F
:100C5000EB0080618093EB0081E090E002C0880FA0
:100C6000991F2A95E2F78093EA001092EA0080919A
:100C7000EB0088608093EB001092E9008091E8001F
:100C8000877F89C0882309F0A6C0109129021F77A9
:100C90008091E3008078812B8093E3008091E800CD
:100CA000877F8093E800CFDD8091E80080FFFCCF54
:100CB0008091E30080688093E300112311F482E0C7
:100CC00001C083E08093260286C08058823008F0FD
:100CD00082C08091290290912A0223E08C3D9207E4
:100CE00009F033C083E08C838AE28B837FB7F8946A
:100CF000DE0115966EE040E050E011E2E62FF0E0F4
:100D000010935700849140FF03C082958F706F5FEE
:100D10008F70282F30E08A3018F0C901C79602C0C2
:100D2000C901C0968D939D934F5F5F4F443151052C
:100D300029F77FBF8091E800877F8093E800CE018C
:100D400003966AE270E0A5DB12C060912B02AE014F
:100D50004F5F5F4F5EDBBC01009709F43CC08091A0
:100D6000E800877F8093E80089819A813EDC80914A
:100D7000E8008B778093E8002EC0803861F5809181
:100D8000E800877F8093E800809122028093F10041
:100D90008091E8008E778093E80055DD1CC08823A1
:100DA000D1F4909129029230B0F48091E800877FCD
:100DB0008093E8009093220246DD809122028823EE
:100DC00031F48091E30087FD02C081E001C084E03E
:100DD00080932602E0DA8091E80083FF0AC08091C8
:100DE000E800877F8093E8008091EB008062809329
:100DF000EB00AC960FB6F894DEBF0FBECDBFCF911F
:100E0000DF911F91089508951F93809126028823F2
:100E100071F01091E9008091EC001092E90080914E
:100E2000E80083FF01C087DE1F701093E9001F9167
:100E300008954F925F926F927F928F929F92AF929E
:100E4000BF92CF92DF92EF92FF920F931F93DF93A7
:100E5000CF9300D00F92CDB7DEB77C016DB67EB6D2
:100E600080912602843009F099C02091E4003091ED
:100E7000E500F701828593858217930709F48EC0F8
:100E800081818F708093E9008091E80085FF86C0A2
:100E90005DB64EB6408550E08DB79EB7841B950B6E
:100EA0000FB6F8949EBF0FBE8DBF0DB71EB70F5F74
:100EB0001F4F19821B821A82C02E912EC80160E03A
:100EC00070E050E03BD2C701BE016F5F7F4F40E052
:100ED00098018E010E5F1F4F68D9882EF701848517
:100EE0009585892B19F4AA24BB240BC020E0F701B7
:100EF00086859785892B09F021E081E02827A22E9D
:100F0000BB24F701068117810115110511F4DD24B9
:100F100012C04A815B818C2D992DB801F9D1DD2455
:100F2000009711F0DD24D394F7014085C8016C2DA2
:100F3000792D50E0FAD18A819B81892B01F188209B
:100F400021F4DD2011F4AB28D1F0F70184859585DB
:100F50009787868781818F708093E90089818823B4
:100F600011F08093F1006A817B818C2D992D40E0F6
:100F700050E0A3DB8091E8008E778093E8008091B9
:100F8000E4009091E500F70193878287252D342DA9
:100F9000C9010FB6F8949EBF0FBE8DBF0FB6F8946F
:100FA0007EBE0FBE6DBE0F900F900F90CF91DF9160
:100FB0001F910F91FF90EF90DF90CF90BF90AF9077
:100FC0009F908F907F906F905F904F900895CF93F8
:100FD000DF93DC010996FC0187E0EF0119928A9505
:100FE000E9F781E019968C93199784EF91E01D96AB
:100FF0009C938E931C9783E014968C931497CD0149
:10100000019661E0E4DB811181E0DF91CF910895E9
:101010006F927F928F929F92AF92BF92CF92DF9208
:10102000EF92FF920F931F93DF93CF9300D00F9215
:10103000CDB7DEB76C016DB67EB68091E80083FF58
:1010400013C1F601808190E020912B0230912C0297
:101050002817390709F008C180912802833009F464
:10106000ABC0843030F4813071F0823009F0FCC0C4
:10107000DFC08A3009F4C4C08B3009F4AEC08930B7
:1010800009F0F2C056C080912702813A09F0ECC005
:101090009DB68EB61B821A828091290210912A0277
:1010A0008983F601408550E08DB79EB7841B950B70
:1010B0000FB6F8949EBF0FBE8DBFEDB6FEB6089476
:1010C000E11CF11CBE2CAF2CC70160E070E050E0C9
:1010D00035D11150C601BE016F5F7F4F412F97017F
:1010E0008E010E5F1F4F61D8F601268137812115D1
:1010F000310529F04085C901B70150E016D11092A1
:10110000E9008091E800877F8093E8006A817B8115
:101110008B2D9A2DBED98091E8008B778093E800C3
:10112000292D382DC9010FB6F8949EBF0FBE8DBF73
:101130009BC080912702813209F096C09DB68EB681
:1011400000912D0210912E02A0902902B0902A0247
:101150008DB79EB7801B910B0FB6F8949EBF0FBE44
:101160008DBFEDB6FEB60894E11CF11C8091E8003D
:10117000877F8093E800C701B801F1D98091E8002A
:101180008E778093E80080E090E0AA2011F081E063
:1011900090E0BA94E80EF91E081B190BC6016A2DDF
:1011A0004B2D9701F3D8892D982D9C010FB6F894FB
:1011B0003EBF0FBE2DBF58C080912702813A09F073
:1011C00053C08091E800877F8093E8008091E80019
:1011D00080FFFCCFF60181853FC0809127028132DC
:1011E00009F042C08091E800877F8093E8002BDB04
:1011F00090E080912902811191E0F601918734C03D
:1012000080912702813281F58091E800877F809369
:10121000E80019DB8091290290912A02807036E063
:10122000969587953A95E1F7F601958784871CC0D6
:1012300080912702813AC1F48091E800877F8093F2
:10124000E8008091E80080FFFCCFF6018485958559
:1012500096958795969587958093F1008091E80003
:101260008E778093E800EFDA0FB6F8947EBE0FBE5B
:101270006DBE0F900F900F90CF91DF911F910F9146
:10128000FF90EF90DF90CF90BF90AF909F908F90A6
:101290007F906F90089597FB092E05260ED057FD7D
:1012A00004D014D00AD0001C38F4509540953095E5
:1012B00021953F4F4F4F5F4F0895F6F790958095DA
:1012C000709561957F4F8F4F9F4F0895A1E21A2E21
:1012D000AA1BBB1BFD010DC0AA1FBB1FEE1FFF1FDA
:1012E000A217B307E407F50720F0A21BB30BE40B2A
:1012F000F50B661F771F881F991F1A9469F7609571
:101300007095809590959B01AC01BD01CF0108952A
:10131000FB01DC0104C08D910190801921F4415042
:101320005040C8F7881B990B0895FB01DC0102C0EF
:1013300001900D9241505040D8F70895DC0101C052
:0E1340006D9341505040E0F70895F894FFCFB0
:10134E000081080000011A010800000000000000E2
:00000001FF
